:1000000019C035C034C033C032C031C037C02FC072
:100010009DC02DC05AC02BC02AC0F6C228C027C020
:1000200026C06DC224C023C022C021C020C01FC072
:100030001EC01DC011241FBECFEFCDBFDFE3DEBF4A
:100040001EE3A0E0BEE3E2E7FDE102C005900D92F1
:10005000AA36B107D9F72EE3AAE6BEE301C01D9286
:10006000A43DB207E1F70E94B5000C94B70E0C94C2
:1000700000000E94CF020E94E20108951F920F9299
:100080000FB60F9211242F933F934F935F936F936B
:100090007F938F939F93AF93BF93EF93FF930E94B0
:1000A000660282E080934301FF91EF91BF91AF918F
:1000B0009F918F917F916F915F914F913F912F9180
:1000C0000F900FBE0F901F9018951F920F920FB6B2
:1000D0000F9211248F939F93AF93BF93EF93FF934E
:1000E000E0E0FAE080E1838710A211A280916A3EED
:1000F00090916B3EA0916C3EB0916D3E0196A11D1A
:10010000B11D80936A3E90936B3EA0936C3EB0937A
:100110006D3E80917D3E8F5F80937D3E8091823EDB
:10012000882349F08091803E9091813E0196809392
:10013000803E9093813EFF91EF91BF91AF919F914F
:100140008F910F900FBE0F901F9018951F920F92D6
:100150000FB60F9211248F9381E080930B0A8F9139
:100160000F900FBE0F901F9018950E9439000E94AB
:10017000EC0285E00E94F80280E00E94F2028FB754
:1001800080688FBF10927C3E1092823E1092803E1B
:100190001092813E10927F3E8FEF80937E3EC1E0B1
:1001A0000F2EF5E0FF2EF02D04E0D2E00F2EF6E644
:1001B000EF2EF02D13E00E942A0280917C3E8230C7
:1001C00069F128F4882359F08130E1F0F4CF8430CC
:1001D00009F45AC0A8F1853009F45FC0ECCF80E083
:1001E00090E00E947002807880936E3E882319F31D
:1001F00080917E3E0E94F8028FEF0E94F202C0932F
:100200007C3ED9CF80E090E00E947002807880939D
:100210006E3E8111D0CFD0937C3ECDCF80E090E078
:100220000E947002807880936E3E882321F21093A2
:100230007C3E1092803E1092813EC093823EBBCFA6
:1002400080E090E00E947002807880936E3E811181
:1002500006C01092803E1092813E00937C3E109228
:10026000823E8091803E9091813E893E934048F04D
:10027000F0927C3E1092803E1092813E10927D3E24
:100280009ACFC093823E97CF80E00E94F8028FEF12
:100290000E94F20210927C3E8ECF80E090E00E949D
:1002A0007002807880936E3E882329F180917D3E94
:1002B0008A3108F480CF10927D3E80917F3E81305C
:1002C00059F480917E3E8F5F863618F480937E3E8F
:1002D0000AC0E0927E3E07C080917E3E823018F0D8
:1002E000815080937E3E80917E3E0E94F8028FEF87
:1002F0000E94F20260CF80917F3E813019F410920B
:100300007F3E02C0C0937F3ED0937C3E54CFE9EA4B
:10031000FEE38081826080830895E091343EF09115
:10032000353E808188233CF4E091A73EF091A83EC1
:100330008081846080830895882324F481E0809301
:100340006F3E089586FD03C010926F3E08958F7032
:100350008E5F80936F3E089583EA9EE30E94BF0DF7
:1003600060E070E08CE49EE30E942B0E60E070E0A1
:100370008CE49EE30E944A0E61E070E08CE49EE310
:100380000E942B0E61E070E08CE49EE30E944A0E16
:1003900049E95EE360E084E39EE30E94AB034EE93B
:1003A0005EE361E084E39EE30E94AB030895E0E432
:1003B000F1E0918192FDFDCF90E080934A0190930E
:1003C0004B01089584E10E94D701E6E1F4E08081C9
:1003D000877F8083E7E1F4E08081877F8083E9EA9B
:1003E000FEE3108288E19EE38183928382E19EE3B3
:1003F000838394838AE09EE3858396838EE09EE3E5
:100400008783908780E09EE38187928786E09EE3E2
:100410008387948783EC9BE0858796878CEA91E0BD
:100420008787908B8CE991E0818B928B87E891E0B4
:10043000838B948B158A168A8DE891E0878B908F39
:10044000CF010E94BE090E94B9098093A73E9093F4
:10045000A83E0895E091A73EF091A83E808180FFDC
:100460000CC080E00E941D0A811107C0E091A73EE8
:10047000F091A83E80818E7F8083E091A73EF0912D
:10048000A83E808181FF11C00E946F0A811103C0C4
:100490000E94770A03C080E80E949C01E091A73E79
:1004A000F091A83E80818D7F8083E091A73EF091FE
:1004B000A83E808182FF09C081608083E091A73ED1
:1004C000F091A83E80818B7F80830895E9EAFEE366
:1004D00080818160808384E190E00E94A003089580
:1004E0009C01220F331F820F931F880F991FE091E9
:1004F000383EF091393EE80FF91F808108951F9230
:100500000F920FB60F9211242F933F934F935F9347
:100510006F937F938F939F93AF93BF93EF93FF93CB
:100520000E948B0EFF91EF91BF91AF919F918F91A0
:100530007F916F915F914F913F912F910F900FBEDF
:100540000F901F90189580E0089580E0089580E056
:100550000895E0E1F4E0808188608193E83184E0EF
:10056000F807C9F7E0E3F4E0808188608193E8331D
:1005700084E0F807C9F7E0E5F4E0808188608193C2
:10058000E83584E0F807C9F70895409A4898E0E014
:10059000F2E08381816083830E94E00208950E94DB
:1005A000A9020E94A5020E9418030E9426030E942D
:1005B000C5020E94A7020E9424030E94A30208957C
:1005C000E0E4FAE08FEF848784E6858787E1818322
:1005D00081E0808380E00895E0E4FAE0808181603A
:1005E0008083089590E080934A0A90934B0A08957F
:1005F000E0E4FAE090819E7F9083858712861386DF
:1006000080818160808308951F920F920FB60F92B0
:1006100011248F9381E08093460A8091703E8F5F12
:100620008093703E8F910F900FBE0F901F90189582
:10063000E0E4F1E081E8808381E0878382E08283E7
:1006400081818111FDCF089580E00895E0E0FAE016
:1006500085E09DE080A791A780E1818384E0818788
:1006600081E1828781E0808380E00895CF92DF92EC
:10067000FF920F931F93CF93DF93EC01AE81BF8165
:10068000EB01CC0FDD1FC60FD71FCA0FDB1FFA808F
:10069000FC0144815581E6E0E69F9001E79F300D23
:1006A00011248A01020F131FF80122813381F901FD
:1006B00021813281F80104811581201B310BE881F1
:1006C0002E1B3109EC01EA81FB8100811181129618
:1006D000FA0140E050E04017510739F1461757073B
:1006E000F9F08C918F111CC0808185588230F8F010
:1006F000C480D58082819381EC0189819A81C8165A
:10070000D90670F48C199D09ED012297C881D0E0BB
:10071000C817D90728F48C1B9D0B2817390738F008
:100720004F5F5F4F13963696D6CF80E001C081E0D1
:10073000DF91CF911F910F91FF90DF90CF9008959F
:100740002091713E3091723E820F931F8093713ED3
:100750009093723E08950097D9F041155105C1F06C
:1007600026E0629FB0011124DC011496ED91FC910A
:100770001597E60FF71F21E0208314968D919C9129
:100780001597FC01E60FF71F4283538380E008951D
:100790008BE008953F924F925F926F927F928F927B
:1007A0009F92AF92BF92CF92DF92EF92FF920F9300
:1007B0001F93CF93DF9300D000D0CDB7DEB7009763
:1007C00009F413C48B839C83C12CD12C812C912CD4
:1007D00030E020E043E0B42E55E8752E66E8A62E02
:1007E00074E0372EE7E04E2EF2E05F2EA8E06A2E8E
:1007F000AB81BC811296ED91FC9113978081918120
:100800008816990608F0EBC17601EE0CFF1CAB814F
:10081000BC8114960D911C9115970E0D1F1DD801CA
:100820008C91843009F4B8C038F4823011F108F0AA
:100830004DC0813059F0CCC1853809F4E1C086380B
:1008400009F425C1873009F0C3C16DC1D8011296E2
:10085000ED91FC91139780818E7109F0ABC15C9290
:10086000EB81FC8184819581FC01EE0DFF1D61828D
:10087000A1C1D80111964C911197442329F11296E8
:10088000ED91FC911397453018F0818192810EC053
:10089000D80114968D919C9115976181728186176C
:1008A000970769F06817790730F4019714968D93CC
:1008B0009C93159704C00196F80184839583415059
:1008C000D80111964C9376C1F8016FC1D8011496E6
:1008D0006D917C91159712968D919C911397DC01E7
:1008E00011964D915C9112976417750709F470C1C8
:1008F000AB81BC8116968D919C911797461757072F
:1009000000F5641B750BDC01AC0DBD1D8C9190E0F6
:10091000058002C0959587950A94E2F79927681794
:10092000790708F455C18481882309F451C1F8017D
:100930004082AB81BC811296ED91FC91139744816A
:1009400022C0FC01EC0DFD1D461B570B808190E081
:100950004817590708F43CC18281882359F0B40133
:100960008B819C8129833A830E94360329813A81B5
:1009700081112EC1F8013082AB81BC811296ED91BC
:10098000FC911397428114968D919C911597FC01CF
:10099000EE0DFF1D41831CC1F80144815581028089
:1009A000F381E02D818192818417950708F404C1B9
:1009B000AB81BC811696ED91FC911797EC0DFD1D56
:1009C000841B950B408150E048175907B8F4828189
:1009D000882351F0B401CD0129833A830E94360364
:1009E00029813A818111F4C0F8018181882311F0B5
:1009F0008150DFC07082AB81BC817AC0F801BCC07D
:100A0000AB81BC814D915C9111978085FA01838304
:100A10001496ED91FC911597EE0DFF1D6481758183
:100A2000A281B38111968D919C9112978617970799
:100A3000E8F0AB81BC8116964D915C911797DA0175
:100A4000AC0DBD1D3C91432F50E01196AC91AF5FB2
:100A500002C055954795AA95E2F7861B970B341B64
:100A6000432F50E04817590708F4B1C0A082AB816A
:100A7000BC811296ED91FC911397228114968D9171
:100A80009C911597FC01EE0DFF1D21834AC0F801D2
:100A9000648175810280F381E02D818192818617C6
:100AA000970750F4D80111968C9111978823A1F1E2
:100AB0008150F80181838BC0AB81BC811696ED918A
:100AC000FC911797EC0DFD1D3081432F50E0E18123
:100AD000EF5F02C055954795EA95E2F7861B970BA5
:100AE000341B432F50E04817590780F4F8017082F7
:100AF0001296ED91FC911397338114968D919C91F0
:100B00001597FC01EE0DFF1D318361C0D8011196D0
:100B10008C911197811102C0BC9259C08150F8018B
:100B2000818331E047C0D80114964D915C911597AF
:100B300012968D919C911397DC0111968D919C9149
:100B4000129784179507C0F5481B590BAB81BC81E0
:100B500016968D919C911797DC01AC0DBD1D8C9163
:100B600090E0058002C0959587950A94E2F7992751
:100B7000F8014817590740F4B082AB81BC81149644
:100B80008D919C9115971EC08181811110C081E0CB
:100B90008083AB81BC8114968D919C911597FC014B
:100BA000EE0DFF1D0280F381E02DB08211C0815057
:100BB000F801818321E00CC0D801BC92EB81FC815B
:100BC00084819581FC01EE0DFF1D118201C031E091
:100BD000FFEF8F1A9F0A83E0C80ED11C09CEED915A
:100BE000FC91808187FF2BC060E070E040E050E026
:100BF000AB81BC811296ED91FC911397808191811C
:100C000048175907B8F4AB81BC811496ED91FC915B
:100C10001597E60FF71FA281B3818C9180FD05C067
:100C20009081977F11F081608C934F5F5F4F6A5F77
:100C30007F4FDECFED91FC9180818F7780832111F2
:100C400009C0AB81BC81ED91FC9131117FC08081E5
:100C50008E7F7EC0AB81BC811296ED91FC91139783
:100C60008185882371F3ED91FC91119780818068D3
:100C700080831296ED91FC9113978185813009F75D
:100C800060E070E040E050E026E0AB81BC8112966D
:100C9000ED91FC911397008111814017510788F65F
:100CA000EB81FC81E480F580FB01EE0FFF1FEE0D70
:100CB000FF1D8081982F977FC1F1853811F0833017
:100CC000D1F5AB81BC811696CD90DC901797D601FB
:100CD000A60FB71F1296AC90AA2039F180E090E0E1
:100CE000B12C80179107F8F484179507D1F0289F4D
:100CF000D001299FB00D1124AE0DBF1DAC91A430C1
:100D000011F0A63871F4DC01AA0FBB1FA80FB91FA0
:100D1000AC0DBD1D1296AC91AA1203C0C801BB2434
:100D2000B3940196DECFB11006C00280F381E02DAE
:100D300080818E7F05C00280F381E02D80818160FB
:100D400080834F5F5F4F6D5F7F4F9FCF808181605A
:100D500080838091713E9091723EAB81BC81ED9118
:100D6000FC9121813281A90148535F4F48175907EF
:100D700018F4821B930B05C08217930738F080E0AC
:100D800090E0AA24A394A3E0BA2E22C00197821B6C
:100D9000930B893C910598F3F4CFA901440F551F9B
:100DA000EB81FC8164817581FB01E40FF51F60819B
:100DB000653809F4C0C011962D5F3F4FEB81FC816F
:100DC00042815381FA0140815181A417B50728F36C
:100DD000893C910508F407C1885C9109AB81BC810D
:100DE000ED91FC912181328128533F4F2183328341
:100DF000238121118FC02481222311F021502483CB
:100E0000AB81BC81ED91FC912581222311F0215011
:100E10002583EB81FC8182809380D40116962C91EE
:100E200016972223B1F100811181F801248121114B
:100E300030C0ED90FC9060E070E040E050E04E1576
:100E40005F0511F1AB81BC811496ED91FC91159772
:100E5000E60FF71F2081233011F0283081F4248120
:100E60003581C280D380D6011196CD90DC90129747
:100E70002C153D0520F42F5F3F4F248335834F5FB2
:100E80005F4F6A5F7F4FDBCFF4012681D801149654
:100E90002C93EB81FC8182809380D40117962C9156
:100EA00017972223C9F100811181F80125812111B1
:100EB00033C0ED90FC9060E070E040E050E04E15F3
:100EC0005F0511F1AB81BC811496ED91FC911597F2
:100ED000E60FF71F2081233011F0283081F42481A0
:100EE0003581C280D380D6011196CD90DC901297C7
:100EF000C216D30620F421503109248335834F5F75
:100F00005F4F6A5F7F4FDBCFF4012781D8011596D1
:100F10002C9302C021502383AB81BC811296ED91AA
:100F2000FC9113972381222309F452CF20E030E073
:100F3000A0E0B0E043CF6181662319F06150618386
:100F40003ACFA082EB81FC8164817581FB01E40FC3
:100F5000F51F0280F381E02DB082EB81FC81468198
:100F60005781FA01E20FF31FD280DD2009F423CF6D
:100F700040E050E000E010E0EB81FC816281738191
:100F8000FB01608171810617170708F014CFEB8110
:100F9000FC8166817781FB01E40FF51F6281D61227
:100FA0001DC0BA01660F771FEB81FC81848095809C
:100FB000860E971EF401E280F380F701F080F0FEC8
:100FC0000DC0F401A082EB81FC81E480F580F70183
:100FD000E60FF71F0280F381E02DB0820F5F1F4FF5
:100FE0004D5F5F4FC9CF80E001C08BE02496CDBF3D
:100FF000DEBFDF91CF911F910F91FF90EF90DF90B7
:10100000CF90BF90AF909F908F907F906F905F90A8
:101010004F903F9008952F923F924F925F926F9220
:101020007F928F929F92AF92BF92CF92DF92EF9278
:10103000FF920F931F93CF93DF93CDB7DEB72A971D
:10104000CDBFDEBF2C01009709F461C1DC0112960F
:101050002D903C901397F1017180ED91FC9161808E
:10106000D10116968C911697272D30E02B833C8367
:10107000262D30E0882309F4AEC08C90912CAB80F3
:10108000BC80AA0CBB1C7901EE0CFF1CC12CD12C1E
:1010900040E050E000E010E00815190548F58481B3
:1010A00095818C0D9D1DDC0111966D917C9112979F
:1010B000828193818E0D9F1DDC018D919C918617FD
:1010C000970728F4DB01A81BB90BCD0105C06817F1
:1010D000790730F4861B970B4817590708F4AC01C1
:1010E0000F5F1F4FB5E0CB0ED11CEA0CFB1CD4CF19
:1010F000D10117968C91682F70E06417750708F07E
:101100005BC00680F781E02DE20FF31F80818F5FC7
:101110008083F20140815181A281B381FA018181F2
:1011200046815781FA01E80FF11D908118968C9144
:101130001897981350C014960D90BC91A02D7D0166
:10114000E20EF31EF7018081882311F0815001C067
:101150008FE061E070E040E050E0EB81FC814E17F1
:101160005F0778F44217530749F08D01040F151FEC
:10117000F8019081981302C060E070E04F5F5F4F0C
:10118000ECCF672B09F3D7018C9380E090E0D2017C
:101190001296ED91FC911397418150E084179507C9
:1011A000D0F4D201ED91FC910680F781E02DE80F9B
:1011B000F91F10820196EBCF869590E048175907EA
:1011C00050F40680F781E02DE20FF31F8081882321
:1011D00011F081508083F2010280F381E02DE983D8
:1011E000FA838B819C81880F991F8B839C83D90103
:1011F000AA0FBB1FAD83BE83D72CD694D39440E0F7
:1012000050E020E030E0E12CF12CED2DF0E0EF8318
:10121000F887A981BA818C9190E0E816F90608F068
:1012200061C0D201ED91FC91A481B581CD01820F05
:10123000931F89879A87DC018C918C7109F048C0D3
:1012400011966D917C91129782819381840F951FE5
:10125000AD81BE81A80FB91F6D937C93A12CB12CD9
:10126000C12CC71488F5FC01EC0DF11DEC0DF11D2E
:10127000DC0199249394812C312C371499F0C314F8
:1012800071F00D911C9111976081718106171707FC
:1012900011F4939404C00617170708F48394339449
:1012A0001296EBCF9D1458F48D1460F4692D70E004
:1012B000680D711DAF81B8856A177B071CF0A0808F
:1012C000B180C72CC394CDCFE985FA85A182B282C3
:1012D000FFEFEF1AFF0A2B5F3F4F8B819C81480F76
:1012E000591F97CF6394671408F0612CE981FA8144
:1012F000A281B38184819581FC01E60DF11D80817D
:101300008C93D201ED91FC91618280E001C08BE071
:101310002A96CDBFDEBFDF91CF911F910F91FF9035
:10132000EF90DF90CF90BF90AF909F908F907F9085
:101330006F905F904F903F902F90089595E090931D
:10134000763EE091CE3EF091CF3E0188F289E02DCD
:10135000309709F00994FFCFE091CE3EF091CF3E57
:101360000388F489E02D309709F0099480E40C9407
:101370009E098091CE3E9091CF3E0895CF93809369
:10138000CE3E9093CF3E8091763E853039F08230CC
:1013900028F08091733E882371F140C01092733E13
:1013A000C0E0A091CE3EB091CF3E2C2F30E0220F76
:1013B000331F1196ED91FC911297E20FF31F0190EC
:1013C000F081E02D309729F317968D919C91189715
:1013D000DC01A20FB31F8D919C910995882329F000
:1013E0008091733E8F5F8093733ECF5F8091733E99
:1013F0008823B9F2CECF82E08093763EE091CE3E54
:10140000F091CF3E0784F089E02D309711F00995D7
:1014100008C085E08093763E81E001C08F5F8093B5
:10142000733E8091733E882331F01092733E80E8C2
:10143000CF910C949E09CF9108951F93CF93DF9382
:10144000182F8093743EA091CE3EB091CF3E15965A
:101450004D915C911697D0E0FA01ED0FF11DED0F63
:10146000F11D80819181892B11F0DF5FF5CF5396BB
:101470008D919C915497892B49F1212F30E0220FB7
:10148000331FFA01E20FF31F0190F081E02D309736
:10149000E9F01B968D919C911C97DC01A20FB31F64
:1014A0008D919C91009791F06CEA79E00995C82F95
:1014B000811106C083E08093763E1092753E03C092
:1014C00082E08093763E1D1728F001C0C2E082E8DA
:1014D0000E949E098C2FDF91CF911F910895E0917A
:1014E000CE3EF091CF3E0584F685E02D09941F9302
:1014F000CF93DF931F92CDB7DEB71982E091CE3E36
:10150000F091CF3E0588F689E02D309749F082E0D2
:101510008093763ECE010196099583E08093763ED6
:101520008091733E81113EC0198111113BC084E04E
:101530008093763EA091CE3EB091CF3E2091753EF5
:1015400030E0220F331F1396ED91FC911497E20FB8
:10155000F31F0190F081E02D309731F119968D91B4
:101560009C911A97DC01A20FB31F8D919C91099554
:10157000811106C08091753E8F5F8093753EDACFF2
:101580008091733E8F5F8093733E13E08091733E32
:101590008823E1F11092733E8091753E80640E9431
:1015A0009E0934C010E032C01092753E19962C91FD
:1015B00019971A969C911A97E22FF92FE10FF11DB6
:1015C000E10FF11D0190F081E02D309759F001906D
:1015D000F081E02D808187FF03C08C9184608C9323
:1015E0001F5FEACF1093753E82E08093763E579658
:1015F000ED91FC915897309711F0099505C08091B5
:10160000733E8F5F8093733E10E0C0CF812F0F90A9
:10161000DF91CF911F91089580917A3E90917B3E0A
:10162000A091D03EB091D13EED91FC9111974081B7
:10163000518125E0289FB001299F700D112420E0E1
:1016400030E084179507A8F41496ED91FC91159756
:10165000E20FF31FE60FF71FE0812B5F3F4FE0FD26
:1016600002C00196EECF80937A3E90937B3E80E05D
:10167000089510927A3E10927B3E81E00895BC015D
:10168000E091D03EF091D13E86E0869F9001879F09
:10169000300D1124A281B381A20FB31F11968C913A
:1016A00080932A06A281B381A20FB31F8C918093ED
:1016B000260695E0969FA001979F500D1124A481C6
:1016C000B581A40FB51F13968C9180931A06A4813F
:1016D000B581A40FB51F14968C9180931B06A4812D
:1016E000B581A40FB51F8C9181FD9C938481958158
:1016F000DC01A40FB51F8C918C7169F4A281B381B8
:10170000A20FB31F1496AC91A295AF70B0E0AD5983
:10171000B14C8C9101C08FE380931C06A281B381F0
:10172000A20FB31F12968C918B3110F48C5F01C005
:101730008FE180930506A281B381A20FB31F159696
:101740008C9180930106A281B381A20FB31F1396DF
:101750008C9182958F708093190682819381FC0110
:10176000E20FF31F83818F70806180930206809166
:10177000180683608093180681E88093000681E054
:101780008093080608953F924F925F926F927F92E6
:101790008F929F92AF92BF92CF92DF92EF92FF9281
:1017A0000F931F93CF93DF9300D000D0CDB7DEB758
:1017B0008091793E882309F474C1A091D03EB09104
:1017C000D13EC090D23ED090D33E19821A8260E0C2
:1017D00070E000E010E080E03324339421E8622ED2
:1017E00044244A94552453944D915C911197FA01E5
:1017F000208131810217130708F04FC1F6012191B2
:1018000031916F011496ED91FC9115977F01E60ED1
:10181000F71EEB82FC82F70190819C71E92EF12C7E
:10182000F694E794F694E794E114F10421F0EA9435
:10183000EF28E9F026C112964D915C911397E9804B
:10184000FA804E0D5F1DFA0194819F70F92E9581EB
:10185000F91610F49F1901C090E002C03695279543
:101860009A95E2F7EB81FC81218332830BC11296BA
:10187000ED90FC901397E981FA81EE0EFF1EF701BF
:10188000058002C0369527950A94E2F7EB81FC812A
:1018900021833283A380B4802115F2E03F0720F03A
:1018A0002F5F314091E005C07201E21AF30A9701FF
:1018B00090E0FA018280F0E48F1205C036952795FA
:1018C000992319F00BC0992349F04FEFA416B406E1
:1018D00041F4EB81FC8160828EE007C099249394EF
:1018E00001C0912C2A30310590F41496ED91FC91B1
:1018F0001597E60FF71F908197FF30821496ED91B0
:10190000FC911597E60FF71FA382B482BBC0750147
:10191000EF2CFF24E2949FE0E9227E2CA5014427CE
:101920005F70952FA501407F5527E4E056954795B8
:10193000EA95E1F7FA2DFF70AF2E53E05E1540F403
:101940005E2D5370F694E794F694E794752E7E0C12
:1019500091104EC050E8580D523018F0E3E0FE2EC2
:101960002AC056E0F52E27C05F1540F45F5FEFEC0C
:101970008E1A9108F0ED8F169104B0F7752E36E1AE
:1019800083169104D8F49F3019F45F15F0F09FE0AE
:10199000E3E08E169104F0F44F3009F084C09F30DC
:1019A00001F57F1409F48AC094014FE053E08516D5
:1019B000910408F492C0572D4901DCCF9F3029F3E0
:1019C0009F5F25E1821A9108DACF77247394750E10
:1019D00095E0DECF4F3019F34F5F52E0851A910842
:1019E000D7CF9F5F7F1076C09F3009F073C077C05C
:1019F000F72C203D310558F0FF2049F0FA942F5C78
:101A00003109F7CF992341F0915025513109263101
:101A10003105C0F791110DC0F11002C090E009C06E
:101A2000FA949AE006C0442309F442C0415022507F
:101A3000310923303105B8F7411107C09923B1F1BD
:101A400091504AE023303105A0F6F3E0FF1530F461
:101A50002F2D220F220FF7EFFF2EF20E20E1429FD3
:101A6000A0011124592B4A292F2D30E0322F222793
:101A70003295307F422B532BEB81FC81438354837F
:101A800001C0FFCF0F5F1F4F6B5F7F4F29813A81EE
:101A90002A5F3F4F29833A83A7CE92E09093793E05
:101AA00021C083E01FC07F1018C005C0492FCDCFD3
:101AB0009111C6CFCACF9F3041F612C0F3E08F1606
:101AC000910420F02FE0A22E4FE0BFCF4FE02FE097
:101AD000A22EBBCF940145E069CFF72CB6CF45E0ED
:101AE000940164CF2496CDBFDEBFDF91CF911F91CB
:101AF0000F91FF90EF90DF90CF90BF90AF909F90AD
:101B00008F907F906F905F904F903F900895CF930C
:101B1000DC01892B79F1ED91FC9111976081718144
:101B200040E050E020E030E090E02617370779F001
:101B30001296ED91FC911397E40FF51FC1818081FE
:101B40008C2B982B2F5F3F4F4A5F5F4FEECF99232F
:101B500099F08091793E811106C09093220681E030
:101B60008093793E05C080912206982B909322069F
:101B700080E003C08BE001C082E0CF910895009720
:101B800031F08093D23E9093D33E80E008958BE075
:101B900008956115710591F1009781F12091793EC9
:101BA000222371F1243071F18093D03E9093D13E85
:101BB0006093773E7093783E20EC20931806DC010A
:101BC000ED91FC912281203421F4209118062062AD
:101BD00005C0203841F42091180628622093180689
:101BE00010921E0613C0213879F42091180628623D
:101BF0002093180626E820931E0608C08BE008955F
:101C000083E0089581E0089582E00895DC01ED917C
:101C1000FC918481803108F080E18093030681E0AB
:101C200080930B0680930A0610927A3E10927B3EB8
:101C30000E940C0B81110BC084E08093793E80914F
:101C40007A3E90917B3E0E943F0B80E0089582E0B7
:101C50008093793E08950097C9F0DC01ED91FC91E5
:101C60001197208131812617370790F045E0469F74
:101C70009001479F300D11241496ED91FC9115971A
:101C8000E20FF31F81E0808380E008958BE00895E8
:101C900082E00895FC01892BD1F1A081B1818D9161
:101CA0009C91119786179707A0F112969C9104803A
:101CB000F581E02D903459F485E0869FD001879F0F
:101CC000B00D1124AE0FBF1F84E392E00DC09058F9
:101CD000923080F485E0869FD001879FB00D11245B
:101CE000AE0FBF1F87E695E013968D939C931497D4
:101CF00080E001C082E095E0969F9001979F300DB3
:101D00001124E20FF31F90819260908308958BE07D
:101D1000089582E0089510920006409110065091B7
:101D2000110680917A3E90917B3E9C01220F331FD9
:101D3000E091D23EF091D33EE20FF31F40835183F6
:101D4000019680937A3E90937B3E0E940C0B81110A
:101D500009C084E08093793E80917A3E90917B3EE9
:101D60000C943F0BE091773EF091783E0994F89403
:021D7000FFCFA3
:101D7200343E1C3E00004C3E0000C90D00004C3EAB
:101D82000000CA030B080000870D0000203E283E19
:101D92000000843E993E963E0203623E313E010FB0
:101DA20006000102903E423EC23E3C3E1401001437
:101DB2000100020004000500140514015E3E523EBB
:101DC200993E000400020004000800020004020020
:0A1DD2008030003F1C0B05030100E8
:00000001FF
