:1000000019C02AC029C028C027C026C025C024C0C6
:1000100023C022C021C020C01FC0A6C01DC01CC05C
:100020001BC01AC019C018C017C016C015C014C014
:1000300013C012C011241FBECFEFCDBFDFE3DEBF60
:100040002EE3A0E0BEE301C01D92A230B207E1F7AB
:100050000E9431000C94CA000C9400000E9483009E
:1000600008950E942E000E949C0085E00E94A80036
:1000700080E00E94A2001092013E8091013E8F3FDD
:10008000D1F38091013E0E94A8008FEF0E94A20050
:1000900082EC92EA0197F1F700C08091013E8F5FF8
:1000A0008093013E8091013E8F3F59F7E4CF80E07D
:1000B000089580E0089580E00895E0E1F4E0808113
:1000C00088608193E83184E0F807C9F7E0E3F4E061
:1000D000808188608193E83384E0F807C9F7E0E520
:1000E000F4E0808188608193E83584E0F807C9F7FF
:1000F0000895409A4898E0E0F2E08381816083832C
:100100000E94900008950E945D000E9459000E9484
:1001100079000E945B000E94C8000E945700089569
:10012000E0E4FAE08FEF848784E6858787E18183C6
:1001300081E0808380E00895E0E4FAE080818160DE
:100140008083089590E080934A0A90934B0A089523
:10015000E0E4FAE090819E7F908385871286138683
:1001600080818160808308951F920F920FB60F9255
:1001700011248F9381E08093460A8091003E8F5F27
:100180008093003E8F910F900FBE0F901F90189597
:0801900080E00895F894FFCF10
:00000001FF
