:1000000019C035C034C033C032C031C037C02FC072
:100010002EC02DC02CC02BC02AC029C028C027C08C
:1000200026C029C224C023C022C021C020C01FC0B6
:100030001EC01DC011241FBECFEFCDBFDFE3DEBF4A
:100040001EE3A0E0BEE3E6E7F9E102C005900D92F1
:10005000A036B107D9F72EE3A0E6BEE301C01D929A
:10006000AF3AB207E1F70E9465000C94B90C0C940A
:1000700000000E948C020E94750108951F920F9249
:100080000FB60F9211242F933F934F935F936F936B
:100090007F938F939F93AF93BF93EF93FF930E94B0
:1000A000FB0182E080934301FF91EF91BF91AF91FB
:1000B0009F918F917F916F915F914F913F912F9180
:1000C0000F900FBE0F901F9018950E9439008FB7A8
:1000D00080688FBF0E94BF0180E090E00E942C02E8
:1000E000882314F4489AF6CF4898F4CF0895CF9314
:1000F000C82F0E94B5028823E1F38C2F0E94C3020F
:100100000E94BB028111FCCFCF910895EF92FF9224
:100110000F931F93CF93DF931F92CDB7DEB78091DC
:10012000603E8F7081F400E01EE30F2EF3E1EF2EAE
:10013000FEE3FF2EF02DF80181918F010E947700E0
:10014000E016F106C1F785E50E9477008091603ED8
:100150000E94770019828981823008F050C089811D
:1001600090E00E940502192F0E947700812F0E94C3
:100170007700898190E00E941202192F0E94770077
:10018000812F0E947700898190E00E9405028C01F6
:10019000898190E00E941202081B190B802F0E9497
:1001A0007700812F0E947700898190E00E941F02D2
:1001B000192F0E947700812F0E947700898190E09B
:1001C0000E942C02882324F481E00E94770003C05F
:1001D00080E00E947700898190E0FC01EE0FFF1F14
:1001E0008E0F9F1FFC01ED5CF14C80810E94770017
:1001F00089818F5F89838981823008F4B0CF8091B3
:10020000613E0E9477008091603E91E0980F90934C
:10021000603E0E9477008AEA0E9477000F90DF918B
:10022000CF911F910F91FF90EF900895E4E8FEE3C6
:100230008081826080830895E0912B3EF0912C3E76
:10024000808188233CF4E091823EF091833E80815E
:10025000846080830E9486000895882324F481E0CE
:100260008093613E09C086FD03C01092613E04C0C8
:100270008F708E5F8093613E0E94860008958EE7A6
:100280009EE30E94C10B60E070E083E49EE30E9465
:100290002D0C60E070E083E49EE30E944C0C61E072
:1002A00070E083E49EE30E942D0C61E070E083E443
:1002B0009EE30E944C0C44E75EE360E08BE29EE329
:1002C0000E94400349E75EE361E08BE29EE30E9407
:1002D00040030895E0E4F1E0918192FDFDCF90E0CC
:1002E00080934A0190934B01089584E10E946A0132
:1002F000E6E1F4E08081877F8083E7E1F4E08081BC
:10030000877F8083E4E8FEE3108287E29EE38183B7
:10031000928383E29EE3838394838BE19EE38583D0
:1003200096838FE19EE38783908783E19EE38187B5
:10033000928787E19EE38387948785EC99E08587A0
:1003400096878FE391E08787908B8DE291E0818B98
:10035000928B86E191E0838B948B158A168A8CE1CF
:1003600091E0878B908FCF010E94C0070E94BB074E
:100370008093823E9093833E0E9476000895E091A0
:10038000823EF091833E808180FF0CC080E00E941D
:100390001F08811107C0E091823EF091833E808169
:1003A0008E7F8083E091823EF091833E808181FF49
:1003B00011C00E947108811103C00E94790803C016
:1003C00080E80E942D01E091823EF091833E808181
:1003D0008D7F8083E091823EF091833E808182FF19
:1003E00009C081608083E091823EF091833E8081EC
:1003F0008B7F80830895E4E8FEE3808181608083C1
:1004000084E190E00E94350308959C01220F331F80
:10041000220F331F820F931FFC01EC58F14C818196
:10042000928108959C01220F331F820F931FFC01BC
:10043000EE0FFF1FE356F14C8481958108959C01D6
:10044000220F331F220F331F820F931FFC01EC5822
:10045000F14C8381948108959C01220F331F820FF8
:10046000931F880F991FE0912F3EF091303EE80FC7
:10047000F91F808108951F920F920FB60F921124D9
:100480002F933F934F935F936F937F938F939F939C
:10049000AF93BF93EF93FF930E948D0CFF91EF9169
:1004A000BF91AF919F918F917F916F915F914F918C
:1004B0003F912F910F900FBE0F901F90189580E0E5
:1004C000089580E0089580E00895E0E1F4E08081FF
:1004D00088608193E83184E0F807C9F7E0E3F4E04D
:1004E000808188608193E83384E0F807C9F7E0E50C
:1004F000F4E0808188608193E83584E0F807C9F7EB
:1005000008952398E3E3F4E08081877F8083229A33
:100510002A980E94AB0208950E946502409A48986A
:100520000E9461020E949D020E9481020E94630259
:100530000E94A9020E945F020895E0E4F1E081E8D0
:10054000808381E0878382E0828381818111FDCF76
:10055000089580E00895E0E0F8E08BE591E0808781
:10056000918780EC868380E008958091040885FB64
:10057000882780F908958091040886FB882780F9F0
:1005800091E089270895E0E0F8E0948195FFFDCFA0
:10059000809302080895CF92DF92FF920F931F93EA
:1005A000CF93DF93EC01AE81BF81EB01CC0FDD1F58
:1005B000C60FD71FCA0FDB1FFA80FC01448155818B
:1005C000E6E0E69F9001E79F300D11248A01020FBB
:1005D000131FF80122813381F90121813281F80151
:1005E00004811581201B310BE8812E1B3109EC01A0
:1005F000EA81FB81008111811296FA0140E050E00E
:100600004017510739F146175707F9F08C918F11B0
:100610001CC0808185588230F8F0C480D5808281EA
:100620009381EC0189819A81C816D90670F48C19DE
:100630009D09ED012297C881D0E0C817D90728F499
:100640008C1B9D0B2817390738F04F5F5F4F1396AF
:100650003696D6CF80E001C081E0DF91CF911F9127
:100660000F91FF90DF90CF9008952091623E3091DE
:10067000633E820F931F8093623E9093633E089582
:100680000097D9F041155105C1F026E0629FB001F5
:100690001124DC011496ED91FC911597E60FF71FDC
:1006A00021E0208314968D919C911597FC01E60F13
:1006B000F71F4283538380E008958BE008953F92B3
:1006C0004F925F926F927F928F929F92AF92BF9262
:1006D000CF92DF92EF92FF920F931F93CF93DF930E
:1006E00000D000D0CDB7DEB7009709F413C48B83D8
:1006F0009C83C12CD12C812C912C30E020E043E054
:10070000B42E55E8752E66E8A62E74E0372EE7E085
:100710004E2EF2E05F2EA8E06A2EAB81BC811296CD
:10072000ED91FC911397808191818816990608F0CC
:10073000EBC17601EE0CFF1CAB81BC8114960D91D0
:100740001C9115970E0D1F1DD8018C91843009F452
:10075000B8C038F4823011F108F04DC0813059F042
:10076000CCC1853809F4E1C0863809F425C1873049
:1007700009F0C3C16DC1D8011296ED91FC91139798
:1007800080818E7109F0ABC15C92EB81FC81848128
:100790009581FC01EE0DFF1D6182A1C1D80111966A
:1007A0004C911197442329F11296ED91FC911397E6
:1007B000453018F0818192810EC0D80114968D9138
:1007C0009C911597618172818617970769F0681768
:1007D000790730F4019714968D939C93159704C074
:1007E0000196F801848395834150D80111964C936A
:1007F00076C1F8016FC1D80114966D917C9115975F
:1008000012968D919C911397DC0111964D915C91FC
:1008100012976417750709F470C1AB81BC811696F5
:100820008D919C9117974617570700F5641B750B20
:10083000DC01AC0DBD1D8C9190E0058002C095954A
:1008400087950A94E2F799276817790708F455C144
:100850008481882309F451C1F8014082AB81BC81B5
:100860001296ED91FC911397448122C0FC01EC0D8E
:10087000FD1D461B570B808190E04817590708F46F
:100880003CC18281882359F0B4018B819C812983EA
:100890003A830E94CB0229813A8181112EC1F8014D
:1008A0003082AB81BC811296ED91FC91139742810D
:1008B00014968D919C911597FC01EE0DFF1D4183BF
:1008C0001CC1F801448155810280F381E02D8181B2
:1008D00092818417950708F404C1AB81BC811696F8
:1008E000ED91FC911797EC0DFD1D841B950B40813C
:1008F00050E048175907B8F48281882351F0B401B9
:10090000CD0129833A830E94CB0229813A8181114A
:10091000F4C0F8018181882311F08150DFC070821A
:10092000AB81BC817AC0F801BCC0AB81BC814D9168
:100930005C9111978085FA0183831496ED91FC9167
:100940001597EE0DFF1D64817581A281B38111960B
:100950008D919C91129786179707E8F0AB81BC8127
:1009600016964D915C911797DA01AC0DBD1D3C9127
:10097000432F50E01196AC91AF5F02C0559547955B
:10098000AA95E2F7861B970B341B432F50E04817BC
:10099000590708F4B1C0A082AB81BC811296ED91D9
:1009A000FC911397228114968D919C911597FC01CF
:1009B000EE0DFF1D21834AC0F8016481758102801C
:1009C000F381E02D818192818617970750F4D80139
:1009D00011968C9111978823A1F18150F8018183A0
:1009E0008BC0AB81BC811696ED91FC911797EC0DF5
:1009F000FD1D3081432F50E0E181EF5F02C055952E
:100A00004795EA95E2F7861B970B341B432F50E07E
:100A10004817590780F4F80170821296ED91FC9105
:100A20001397338114968D919C911597FC01EE0DCF
:100A3000FF1D318361C0D80111968C9111978111EE
:100A400002C0BC9259C08150F801818331E047C097
:100A5000D80114964D915C91159712968D919C91A9
:100A60001397DC0111968D919C911297841795072D
:100A7000C0F5481B590BAB81BC8116968D919C919A
:100A80001797DC01AC0DBD1D8C9190E0058002C074
:100A9000959587950A94E2F79927F8014817590721
:100AA00040F4B082AB81BC8114968D919C911597D6
:100AB0001EC08181811110C081E08083AB81BC8127
:100AC00014968D919C911597FC01EE0DFF1D0280EF
:100AD000F381E02DB08211C08150F801818321E0C3
:100AE0000CC0D801BC92EB81FC8184819581FC0112
:100AF000EE0DFF1D118201C031E0FFEF8F1A9F0A3A
:100B000083E0C80ED11C09CEED91FC91808187FF56
:100B10002BC060E070E040E050E0AB81BC811296F9
:100B2000ED91FC9113978081918148175907B8F492
:100B3000AB81BC811496ED91FC911597E60FF71FE0
:100B4000A281B3818C9180FD05C09081977F11F0C7
:100B500081608C934F5F5F4F6A5F7F4FDECFED9177
:100B6000FC9180818F778083211109C0AB81BC818A
:100B7000ED91FC9131117FC080818E7F7EC0AB8171
:100B8000BC811296ED91FC9113978185882371F3B6
:100B9000ED91FC9111978081806880831296ED9190
:100BA000FC9113978185813009F760E070E040E0A7
:100BB00050E026E0AB81BC811296ED91FC91139739
:100BC000008111814017510788F6EB81FC81E48098
:100BD000F580FB01EE0FFF1FEE0DFF1D8081982FAA
:100BE000977FC1F1853811F08330D1F5AB81BC819D
:100BF0001696CD90DC901797D601A60FB71F1296C8
:100C0000AC90AA2039F180E090E0B12C80179107D8
:100C1000F8F484179507D1F0289FD001299FB00DD3
:100C20001124AE0DBF1DAC91A43011F0A63871F4A3
:100C3000DC01AA0FBB1FA80FB91FAC0DBD1D12967A
:100C4000AC91AA1203C0C801BB24B3940196DECFB5
:100C5000B11006C00280F381E02D80818E7F05C037
:100C60000280F381E02D8081816080834F5F5F4F40
:100C70006D5F7F4F9FCF8081816080838091623ED6
:100C80009091633EAB81BC81ED91FC9121813281D9
:100C9000A90148535F4F4817590718F4821B930B5B
:100CA00005C08217930738F080E090E0AA24A3944F
:100CB000A3E0BA2E22C00197821B930B893C9105B9
:100CC00098F3F4CFA901440F551FEB81FC81648197
:100CD0007581FB01E40FF51F6081653809F4C0C020
:100CE00011962D5F3F4FEB81FC8142815381FA01C8
:100CF00040815181A417B50728F3893C910508F478
:100D000007C1885C9109AB81BC81ED91FC91218187
:100D1000328128533F4F21833283238121118FC099
:100D20002481222311F021502483AB81BC81ED91D9
:100D3000FC912581222311F021502583EB81FC8138
:100D400082809380D40116962C9116972223B1F1BC
:100D500000811181F8012481211130C0ED90FC90B7
:100D600060E070E040E050E04E155F0511F1AB81AE
:100D7000BC811496ED91FC911597E60FF71F208129
:100D8000233011F0283081F424813581C280D38052
:100D9000D6011196CD90DC9012972C153D0520F4CC
:100DA0002F5F3F4F248335834F5F5F4F6A5F7F4FD5
:100DB000DBCFF4012681D80114962C93EB81FC81C2
:100DC00082809380D40117962C9117972223C9F122
:100DD00000811181F8012581211133C0ED90FC9033
:100DE00060E070E040E050E04E155F0511F1AB812E
:100DF000BC811496ED91FC911597E60FF71F2081A9
:100E0000233011F0283081F424813581C280D380D1
:100E1000D6011196CD90DC901297C216D30620F41D
:100E200021503109248335834F5F5F4F6A5F7F4FC5
:100E3000DBCFF4012781D80115962C9302C02150F5
:100E40002383AB81BC811296ED91FC911397238192
:100E5000222309F452CF20E030E0A0E0B0E043CFFD
:100E60006181662319F0615061833ACFA082EB81E2
:100E7000FC8164817581FB01E40FF51F0280F38121
:100E8000E02DB082EB81FC8146815781FA01E20FAF
:100E9000F31FD280DD2009F423CF40E050E000E0D2
:100EA00010E0EB81FC8162817381FB0160817181C3
:100EB0000617170708F014CFEB81FC816681778154
:100EC000FB01E40FF51F6281D6121DC0BA01660F47
:100ED000771FEB81FC8184809580860E971EF4013C
:100EE000E280F380F701F080F0FE0DC0F401A082F3
:100EF000EB81FC81E480F580F701E60FF71F0280AB
:100F0000F381E02DB0820F5F1F4F4D5F5F4FC9CF60
:100F100080E001C08BE02496CDBFDEBFDF91CF9192
:100F20001F910F91FF90EF90DF90CF90BF90AF9007
:100F30009F908F907F906F905F904F903F9008951B
:100F400095E09093673EE091A93EF091AA3E01881A
:100F5000F289E02D309709F00994FFCFE091A93E86
:100F6000F091AA3E0388F489E02D309709F00994A6
:100F700080E40C94A0078091A93E9091AA3E089528
:100F8000CF938093A93E9093AA3E8091673E85308F
:100F900039F0823028F08091643E882371F140C09E
:100FA0001092643EC0E0A091A93EB091AA3E2C2FC1
:100FB00030E0220F331F1196ED91FC911297E20F52
:100FC000F31F0190F081E02D309729F317968D9152
:100FD0009C911897DC01A20FB31F8D919C910995EC
:100FE000882329F08091643E8F5F8093643ECF5FB9
:100FF0008091643E8823B9F2CECF82E08093673E31
:10100000E091A93EF091AA3E0784F089E02D309747
:1010100011F0099508C085E08093673E81E001C02A
:101020008F5F8093643E8091643E882331F01092FC
:10103000643E80E8CF910C94A007CF9108951F9350
:10104000CF93DF93182F8093653EA091A93EB09176
:10105000AA3E15964D915C911697D0E0FA01ED0FDE
:10106000F11DED0FF11D80819181892B11F0DF5F62
:10107000F5CF53968D919C915497892B49F1212F4F
:1010800030E0220F331FFA01E20FF31F0190F081CD
:10109000E02D3097E9F01B968D919C911C97DC0117
:1010A000A20FB31F8D919C91009791F06EEA77E0AB
:1010B0000995C82F811106C083E08093673E109286
:1010C000663E03C082E08093673E1D1728F001C092
:1010D000C2E082E80E94A0078C2FDF91CF911F9180
:1010E0000895E091A93EF091AA3E0584F685E02D91
:1010F00009941F93CF93DF931F92CDB7DEB7198268
:10110000E091A93EF091AA3E0588F689E02D30973E
:1011100049F082E08093673ECE010196099583E015
:101120008093673E8091643E81113EC01981111108
:101130003BC084E08093673EA091A93EB091AA3E57
:101140002091663E30E0220F331F1396ED91FC9103
:101150001497E20FF31F0190F081E02D309731F1E9
:1011600019968D919C911A97DC01A20FB31F8D9156
:101170009C910995811106C08091663E8F5F809396
:10118000663EDACF8091643E8F5F8093643E13E0C9
:101190008091643E8823E1F11092643E8091663E26
:1011A00080640E94A00734C010E032C01092663EF6
:1011B00019962C9119971A969C911A97E22FF92F4C
:1011C000E10FF11DE10FF11D0190F081E02D30974D
:1011D00059F00190F081E02D808187FF03C08C9150
:1011E00084608C931F5FEACF1093663E82E0809309
:1011F000673E5796ED91FC915897309711F00995FD
:1012000005C08091643E8F5F8093643E10E0C0CF44
:10121000812F0F90DF91CF911F91089580916B3EA8
:1012200090916C3EA091AB3EB091AC3EED91FC91A3
:1012300011974081518125E0289FB001299F700DB1
:10124000112420E030E084179507A8F41496ED915E
:10125000FC911597E20FF31FE60FF71FE0812B5F5C
:101260003F4FE0FD02C00196EECF80936B3E90931E
:101270006C3E80E0089510926B3E10926C3E81E0CF
:101280000895BC01E091AB3EF091AC3E86E0869FB4
:101290009001879F300D1124A281B381A20FB31F4B
:1012A00011968C9180932A06A281B381A20FB31F5D
:1012B0008C918093260695E0969FA001979F500DF4
:1012C0001124A481B581A40FB51F13968C9180932E
:1012D0001A06A481B581A40FB51F14968C91809332
:1012E0001B06A481B581A40FB51F8C9181FD9C9331
:1012F00084819581DC01A40FB51F8C918C7169F4F8
:10130000A281B381A20FB31F1496AC91A295AF70C6
:10131000B0E0A65AB14C8C9101C08FE380931C06BB
:10132000A281B381A20FB31F12968C918B3110F45E
:101330008C5F01C08FE180930506A281B381A20F6B
:10134000B31F15968C9180930106A281B381A20FE1
:10135000B31F13968C9182958F70809319068281AA
:101360009381FC01E20FF31F83818F708061809372
:1013700002068091180683608093180681E88093A6
:10138000000681E08093080608953F924F925F9295
:101390006F927F928F929F92AF92BF92CF92DF9285
:1013A000EF92FF920F931F93CF93DF9300D000D063
:1013B000CDB7DEB780916A3E882309F474C1A0914D
:1013C000AB3EB091AC3EC090AD3ED090AE3E1982E7
:1013D0001A8260E070E000E010E080E03324339493
:1013E00021E8622E44244A94552453944D915C91F3
:1013F0001197FA01208131810217130708F04FC1BC
:10140000F601219131916F011496ED91FC911597A0
:101410007F01E60EF71EEB82FC82F70190819C7142
:10142000E92EF12CF694E794F694E794E114F10494
:1014300021F0EA94EF28E9F026C112964D915C91D3
:101440001397E980FA804E0D5F1DFA0194819F7019
:10145000F92E9581F91610F49F1901C090E002C091
:10146000369527959A95E2F7EB81FC8121833283AB
:101470000BC11296ED90FC901397E981FA81EE0E64
:10148000FF1EF701058002C0369527950A94E2F702
:10149000EB81FC8121833283A380B4802115F2E0AB
:1014A0003F0720F02F5F314091E005C07201E21A42
:1014B000F30A970190E0FA018280F0E48F1205C0F0
:1014C00036952795992319F00BC0992349F04FEFD2
:1014D000A416B40641F4EB81FC8160828EE007C063
:1014E0009924939401C0912C2A30310590F41496DC
:1014F000ED91FC911597E60FF71F908197FF3082D1
:101500001496ED91FC911597E60FF71FA382B48214
:10151000BBC07501EF2CFF24E2949FE0E9227E2CF2
:10152000A50144275F70952FA501407F5527E4E072
:1015300056954795EA95E1F7FA2DFF70AF2E53E0E7
:101540005E1540F45E2D5370F694E794F694E7949C
:10155000752E7E0C91104EC050E8580D523018F088
:10156000E3E0FE2E2AC056E0F52E27C05F1540F4BA
:101570005F5FEFEC8E1A9108F0ED8F169104B0F7D3
:10158000752E36E183169104D8F49F3019F45F1557
:10159000F0F09FE0E3E08E169104F0F44F3009F094
:1015A00084C09F3001F57F1409F48AC094014FE094
:1015B00053E08516910408F492C0572D4901DCCF01
:1015C0009F3029F39F5F25E1821A9108DACF7724B3
:1015D0007394750E95E0DECF4F3019F34F5F52E0F4
:1015E000851A9108D7CF9F5F7F1076C09F3009F092
:1015F00073C077C0F72C203D310558F0FF2049F02B
:10160000FA942F5C3109F7CF992341F0915025517D
:10161000310926313105C0F791110DC0F11002C01A
:1016200090E009C0FA949AE006C0442309F442C04D
:1016300041502250310923303105B8F7411107C01C
:101640009923B1F191504AE023303105A0F6F3E03F
:10165000FF1530F42F2D220F220FF7EFFF2EF20E81
:1016600020E1429FA0011124592B4A292F2D30E05F
:10167000322F22273295307F422B532BEB81FC8176
:101680004383548301C0FFCF0F5F1F4F6B5F7F4FBA
:1016900029813A812A5F3F4F29833A83A7CE92E07E
:1016A00090936A3E21C083E01FC07F1018C005C020
:1016B000492FCDCF9111C6CFCACF9F3041F612C06E
:1016C000F3E08F16910420F02FE0A22E4FE0BFCF61
:1016D0004FE02FE0A22EBBCF940145E069CFF72C5D
:1016E000B6CF45E0940164CF2496CDBFDEBFDF9135
:1016F000CF911F910F91FF90EF90DF90CF90BF900F
:10170000AF909F908F907F906F905F904F903F90A1
:101710000895CF93DC01892B79F1ED91FC9111971C
:101720006081718140E050E020E030E090E02617D9
:10173000370779F01296ED91FC911397E40FF51F9E
:10174000C18180818C2B982B2F5F3F4F4A5F5F4F69
:10175000EECF992399F080916A3E811106C0909353
:10176000220681E080936A3E05C080912206982B74
:101770009093220680E003C08BE001C082E0CF910D
:101780000895009731F08093AD3E9093AE3E80E097
:1017900008958BE008956115710591F1009781F12D
:1017A00020916A3E222371F1243071F18093AB3E87
:1017B0009093AC3E6093683E7093693E20EC20931A
:1017C0001806DC01ED91FC912281203421F4209156
:1017D0001806206205C0203841F4209118062862BE
:1017E0002093180610921E0613C0213879F4209118
:1017F000180628622093180626E820931E0608C0C3
:101800008BE0089583E0089581E0089582E00895D3
:10181000DC01ED91FC918481803108F080E18093BE
:10182000030681E080930B0680930A0610926B3EBC
:1018300010926C3E0E940E0981110BC084E08093CF
:101840006A3E80916B3E90916C3E0E94410980E01F
:10185000089582E080936A3E08950097C9F0DC0104
:10186000ED91FC911197208131812617370790F077
:1018700045E0469F9001479F300D11241496ED914D
:10188000FC911597E20FF31F81E0808380E00895BB
:101890008BE0089582E00895FC01892BD1F1A081AD
:1018A000B1818D919C91119786179707A0F112969F
:1018B0009C910480F581E02D903459F485E0869F59
:1018C000D001879FB00D1124AE0FBF1F84E392E0BB
:1018D0000DC09058923080F485E0869FD001879F9C
:1018E000B00D1124AE0FBF1F87E695E013968D93C0
:1018F0009C93149780E001C082E095E0969F900150
:10190000979F300D1124E20FF31F90819260908316
:1019100008958BE0089582E00895109200064091AA
:1019200010065091110680916B3E90916C3E9C0187
:10193000220F331FE091AD3EF091AE3EE20FF31F58
:1019400040835183019680936B3E90936C3E0E943E
:101950000E09811109C084E080936A3E80916B3E3C
:1019600090916C3E0C944109E091683EF091693E83
:061970000994F894FFCF7A
:101976005FB400864A03EB00000000000000AA5591
:10198600016EA02B3E0000433E0000CB0B0000433F
:101996003E00005F030000890B00006E3E393E9D4D
:1019A6003E333E1401001401000200040005001439
:1019B600051401553E493E743E0004000000040033
:1019C600080000000402008030003F1C0B050301E4
:00000001FF
