:1000000019C022C021C020C01FC01EC01DC01CC0FE
:100010001BC01AC019C018C017C016C015C014C024
:1000200013C012C011C010C00FC00EC00DC00CC054
:100030000BC00AC011241FBECFEFCDBFDFE3DEBF70
:100040000E9426000C944A000C94000090E088ED79
:1000500084BF90936100E3E6F0E0808184FFFDCFF0
:1000600081E080934104E0E4F4E085832FE734E805
:100070009EE1215030409040E1F700C000008683AF
:100080002FE734E89EE1215030409040E1F700C076
:080090000000EBCFF894FFCF54
:00000001FF
